:0300000002017D7D
:0C017D00787FE4F6D8FD7581420201C4D1
:1003E40009080C040602030101030206040C0809AF
:0603AE00013B41013E008D
:10000E00D2A7D2A1438901758CFC758A18D2A9D2C8
:10001E00AFD28CD2B9120209E542B40202C2A7E5F0
:10002E0042B40302D2A7E54264047024E54264069A
:10003E00601EE4F53DE53D9003E493F5B0AF3B1251
:10004E0003D0053DE53DC3940840EAE4F5B0F54222
:10005E00E54264057024E5426406601EE4F53DE564
:10006E003D9003EC93F5B0AF3B1203D0053DE53D5B
:10007E00C3940840EAE4F5B0F54230A128E53C64AB
:10008E00016022E4F53DE53D9003EC93F5B0AF3B06
:10009E001203D0053DE53DC3940840EAE4F5B07582
:1000AE003C0102002330A103020023E53C640170F1
:1000BE0003020023E4F53DE53D9003E493F5B0AF74
:1000CE003B1203D0053DE53DC3940840EAE4F5B08C
:0600DE00753C0102002345
:03000B000200E40C
:1000E400C0E0C0F0C083C082C0D075D000C000C0E2
:1000F40001C002C003C004C005C006C007E51775EF
:10010400F00A84FD7C007F011202F7E51775F00AFE
:1001140084E5F0FD7C007F021202F7E50975F00A20
:1001240084FD7C007F031202F7E50975F00A84E57B
:10013400F0FD7C007F041202F7053EE53EB40A0997
:10014400753E00120288758000E509D394144008B6
:10015400E54264036002C2A7758CE0758A10D0077B
:10016400D006D005D004D003D002D001D000D0D026
:09017400D082D083D0F0D0E0323B
:1003B4000A273F065B4F666D7D077F6F0A31AF8664
:0803C400DBCFE6EDFD87FFEF42
:08040C007F027EC7DEFEDFFC6B
:0104140022C5
:1002F700A907E914B40800505490030E75F003A43D
:10030700C58325F0C5837302032602032A02032E41
:1003170002033202033602033E02034602034EC2C1
:10032700A4800EC2A48012C2A48016C2A4801AD2CE
:10033700A4C2A3C2A28016D2A4C2A3D2A2800ED204
:10034700A4D2A3C2A28006D2A4D2A3D2A2B9060481
:0E0357007431800274272DF8E6F58002040C44
:0303CC0001080025
:10036500E4F54075110220B407AF110511EF70F6E1
:100375001203F41203F41203F4E4F51630B4037512
:10038500160175110230B407AF110511EF70F6E5CE
:100395001164016013E51C25E0F51CE516421C05FA
:0803A50040E540C3940840BB91
:0103AD00222D
:10028800C2B4120415D2B41203F41203F41203F424
:100298001203F4D2B420B45675110220B407AF117A
:1002A8000511EF70F675110230B407AF110511EFA3
:1002B80070F6120365851C19120365851C1A120352
:1002C80065851C0B120365851C0C120365851C15BE
:1002D800D2B4E50B250C2519251AF516B5150F8589
:0F02E8001917851A18850B09850C0A851513221D
:080415007FC27EA1DEFEDFFCC8
:01041D0022BC
:0C03F400154115411541154115411541F9
:0104000022D9
:08041E007F027E0FDEFEDFFC11
:0104260022B3
:1003D000AD071FED600DE4FEC3EE648094F150F0B4
:0303E0000E80F597
:0103E30022F7
:0B040100EF1FAC0670011E4C70F622CD
:10020900E4F53F75900FE590640F60587FE87E0331
:10021900120401E590640F604B75900FAF90EF24C5
:10022900F5601024FE601114601324077012E4F5C0
:1002390042800D75420180087542028003754203B0
:100249007590F0AF90EF2450600C24E0600C24F01E
:10025900600C2470800E7404800674088002740C8B
:100269002542F542C3E53F648094B25011E590649C
:0E027900F0600B7F647E00120401053F80E6FA
:010287002254
:1001890002000EE493A3F8E493A34003F68001F27E
:1001990008DFF48029E493A3F85407240CC8C33377
:1001A900C4540F4420C8834004F456800146F6DF46
:1001B900E4800B01020408102040809003AEE47E25
:1001C900019360BCA3FF543F30E509541FFEE4933B
:1001D900A360010ECF54C025E060A840B8E493A302
:1001E900FAE493A3F8E493A3C8C582C8CAC583CA2D
:1001F900F0A3C8C582C8CAC583CADFE9DEE780BEE5
:0103CF00002D
:00000001FF
