:020000040800F2
:1000000078060020CD0100082F060008270600080A
:100010002B06000887020008DD0900080000000028
:10002000000000000000000000000000F9060008C9
:100030008B02000800000000B50600080D0800084B
:10004000E7010008E7010008E7010008E7010008F0
:10005000E7010008E7010008E7010008E7010008E0
:100060008D020008E7010008D1020008E70100083E
:10007000E7010008E7010008E7010008E7010008C0
:10008000E7010008E7010008E7010008E7010008B0
:10009000E7010008E7010008E7010008E7010008A0
:1000A000E7010008E7010008E7010008E701000890
:1000B000E7010008E7010008E7010008E701000880
:1000C000E7010008E7010008E7010008E701000870
:1000D000E7010008E7010008E7010008E701000860
:1000E000E7010008E7010008E7010008E701000850
:1000F000E7010008E7010008E7010008E701000840
:10010000E7010008E7010008E7010008E70100082F
:10011000E7010008E7010008E7010008E70100081F
:10012000E7010008E7010008E7010008E70100080F
:1001300000F002F800F03AF80AA090E8000C8244BF
:100140008344AAF10107DA4501D100F02FF8AFF29C
:10015000090EBAE80F0013F0010F18BFFB1A43F0A5
:1001600001031847C0090000E0090000103A24BF4D
:1001700078C878C1FAD8520724BF30C830C144BF0C
:1001800004680C607047000000230024002500264E
:10019000103A28BF78C1FBD8520728BF30C148BFEA
:1001A0000B6070471FB51FBD10B510BD00F031F8D2
:1001B0001146FFF7F7FF00F05BFC00F04FF803B4C7
:1001C000FFF7F2FF03BC00F057F800000948804732
:1001D00009480047FEE7FEE7FEE7FEE7FEE7FEE729
:1001E000FEE7FEE7FEE7FEE704480549054A064B41
:1001F0007047000011080008310100087800002055
:1002000078060020780200207802002070477047AE
:100210007047754600F02CF8AE4605006946534617
:1002200020F00700854618B020B5FFF7DDFFBDE8D8
:1002300020404FF000064FF000074FF000084FF04D
:10024000000B21F00701AC46ACE8C009ACE8C009DE
:10025000ACE8C009ACE8C0098D46704710B504464B
:10026000AFF300802046BDE81040FFF7A8BF0000B4
:10027000004870471800002001491820ABBEFEE777
:1002800026000200704700BFFEE7704710B504204B
:1002900000F074F8012816D1042000F069F8042158
:1002A000094800F0B5F970B9BE21084800F041FBDB
:1002B00000BF0421044800F0ABF90028F9D0B421B4
:1002C000024800F036FB10BD00140140000400405D
:1002D00010B50A2000F0A6FB102000F04FF801280E
:1002E00007D12021054800F09CF92021044800F0A6
:1002F00098F9102000F03CF810BD0000000C0140FF
:10030000001801401FB50121202000F0E5F94FF44D
:10031000A06000F0C5F928208DF803000420ADF896
:1003200000006946114800F09FF80221032000F008
:100330007BF80420029000208DF80C000C208DF832
:100340000D0001208DF80E0002A800F023F808200F
:100350008DF8040001208DF805008DF806008DF859
:10036000070001A800F064F91FBD0000001401405F
:100370000149086070470000140401400146002054
:10038000034A12680A400AB1012000E000207047C9
:1003900014040140002123498279002A3AD00A46F8
:1003A000126803689A430B461A600A1D12680368B4
:1003B0009A430B1D1A60027911440A6803681A43B4
:1003C0000A60184A0832126803689A43154B0833CA
:1003D0001A601A1D126803689A43124B0C331A6094
:1003E0004279102A0ED11A1F126803681A430D4B66
:1003F00008331A601A1D126803681A43094B0C333C
:100400001A600DE00749427911440A6803681A43EB
:100410000A6005E0027911440A6803689A430A6099
:10042000704700000004014030B500228B071C0F0C
:100430000F2303FA04F20B4B8C1053F82430934330
:10044000084C8D1044F8253023468C1053F8243086
:100450008C07240F00FA04F42343024C8D1044F857
:10046000253030BD080001402DE9F041024600254D
:100470000026002000230024002791F803C00CF080
:100480000F0591F803C00CF0100CBCF1000F03D065
:1004900091F802C04CEA050591F800C0BCF1000FCC
:1004A00031D0146800202BE04FF0010C0CFA00F35F
:1004B000B1F800C00CEA03069E4220D183004FF041
:1004C0000F0C0CFA03F7BC4305FA03FC4CEA0404D6
:1004D00091F803C0BCF1280F06D14FF0010C0CFAC3
:1004E00000FCC2F814C00AE091F803C0BCF1480F48
:1004F00005D14FF0010C0CFA00FCC2F810C0401CF2
:100500000828D1D31460B1F800C0BCF1FF0F34DD6E
:10051000546800202EE000F1080C4FF0010808FAA2
:100520000CF3B1F800C00CEA03069E4221D183000F
:100530004FF00F0C0CFA03F7BC4305FA03FC4CEA2E
:10054000040491F803C0BCF1280F05D100F1080C98
:1005500008FA0CF8C2F8148091F803C0BCF1480FF7
:1005600007D100F1080C4FF0010808FA0CF8C2F8A6
:100570001080401C0828CED35460BDE8F0810000F4
:10058000F0B50A46002300240021002500F00046B3
:10059000B6F1004F02D11D4EF16901E01B4E7168AA
:1005A000C0F3034583B200F44016B6F5401F08D1EE
:1005B00021F07061154E766826F07066134F7E60EC
:1005C00012E000F48016B6F5801F06D1032606FA65
:1005D00005F4A14341F0706106E0460D360103FACF
:1005E00006F6B14341F0706122B1460D360103FABF
:1005F00006F6314300F00046B6F1004F02D1034E3B
:10060000F16101E0014E7160F0BD000000000140A9
:100610000246002093680B400BB1012000E000204F
:1006200070474161704700BFFEE700BFFEE77047BB
:1006300070B5002100230F22C47804B3154C246840
:1006400004F4E064C4F5E064210AC1F10403CA4083
:10065000447804FA03F184781440214309010E4CD4
:100660000678A155047804F01F050124AC400578F4
:100670006D11AD0005F1E025C5F8004109E00478F1
:1006800004F01F050124AC40044D0678761145F8AE
:10069000264070BD0CED00E000E400E080E100E0E9
:1006A00002490143024A1160704700000000FA0548
:1006B0000CED00E07047000029B1064AD269024300
:1006C000044BDA6104E0034AD2698243014BDA61E8
:1006D000704700000010024029B1064A92690243A7
:1006E000044B9A6104E0034A92698243014B9A6188
:1006F0007047000000100240704710B500F002F88B
:1007000010BD00000CB50020019000903348006837
:1007100040F480303149086000BF3048006800F480
:10072000003000900198401C0190009818B9019881
:10073000B0F5A06FF1D12948006800F4003010B185
:100740000120009001E0002000900098012843D192
:100750002348006840F010002149086008460068FE
:1007600020F0030008600846006840F002000860BE
:100770001A48406819494860084640684860084679
:10078000406840F4806048600846406820F47C106F
:1007900048600846406840F4E81048600846006831
:1007A00040F08070086000BF0C48006800F00070E6
:1007B0000028F9D00948406820F003000749486044
:1007C0000846406840F00200486000BF03484068A7
:1007D00000F00C000828F9D10CBD00000010024008
:1007E00000200240042808D14FF0E021096941F0BF
:1007F00004014FF0E022116107E04FF0E0210969A8
:1008000021F004014FF0E0221161704770470000B1
:1008100010B51348006840F001001149086008460F
:100820004068104908400E494860084600680E4973
:1008300008400B4908600846006820F480200860E2
:100840000846406820F4FE0048604FF41F008860AE
:10085000FFF753FF4FF000600449086010BD00002F
:10086000001002400000FFF8FFFFF6FE08ED00E078
:1008700021B1028842F00102028004E002884FF6B2
:10088000FE731A400280704770B5002400220023D6
:10089000058C4FF6FE7635400584028C8388048BE8
:1008A0004FF68F752C40B51E2C400D882C43751EBD
:1008B0002A400D892A434D882A43144DA8420BD063
:1008C000134DA84208D0134DA84205D0124DA8429E
:1008D00002D0124DA84213D14FF6F7752A404D8928
:1008E0002A434FF6FB752A408D882A434FF6FF6551
:1008F0002B404FF6FF552B408D892B43CD892B4341
:1009000083800483CD888586028470BD002C0140DD
:1009100000340140004001400044014000480140D3
:100920000A460021018B4FF6F773194011430183EA
:100930007047818670470000002202881D4B984254
:100940000ED01D4B98420BD0B0F1804F08D01B4BFE
:10095000984205D01A4B984202D01A4B984204D1C3
:100960004FF68F731A404B881A43174B984207D0A3
:10097000164B984204D04FF6FF431A40CB881A43D7
:1009800002808B8883850B8803850A4B98420BD0A5
:10099000094B984208D00E4B984205D00D4B984217
:1009A00002D00D4B984201D10B7A0386012383823A
:1009B00070470000002C014000340140000400405A
:1009C00000080040000C00400010004000140040EF
:1009D00000400140004401400048014000BFFEE7E4
:1009E00010B56FF00400FFF7FDFE0A4800680A49E1
:1009F000B0FBF1F0094908700846007800EB4001AF
:100A0000C1EBC0104FF6FF7101EAC0000449088035
:100A100010BD00000000002000127A001400002029
:100A2000160000200146114A12884A434FF0E02385
:100A30005A6100229A611A46126942F001021A6153
:100A400000BF4FF0E022106900F001021AB100F47B
:100A50008032002AF5D04FF0E022126922F0010224
:100A60004FF0E0231A6100229A61704716000020BF
:100A7000FFF7B6FF00F00AF8FFF744FCB421024884
:100A8000FFF757FF00BFFEE70004004000B589B044
:100A900001211020FFF720FE01210220FFF70CFEAC
:100AA00001210846FFF718FE4020ADF82000032082
:100AB0008DF8220018208DF8230008A91648FFF7AA
:100AC000D3FCC720ADF8180041F61F40ADF8140064
:100AD0000020ADF81A00ADF8160005A90F48FFF781
:100AE0002BFF01210E48FFF74BFD6020ADF80400FD
:100AF0000120ADF806000220ADF80C0001A907485E
:100B0000FFF7C2FE08210548FFF70AFF012103484D
:100B1000FFF7AEFE09B000BD001001400004004028
:100B2000000C1A00440B0008000000201800000010
:100B30006C0100085C0B0008180000206006000033
:100B40008801000800A24A04000000000000000024
:0C0B500001020304060708090000000071
:04000005080001CD21
:00000001FF
